:020000040800F2
:100000000050002061950008C51F0008D11F00089E
:10001000D71F0008DD1F0008E31F000800000000D4
:10002000000000000000000000000000E91F0008C0
:10003000F51F000800000000012000080D20000846
:10004000A9950008A9950008A9950008A995000898
:10005000A9950008A9950008A9950008A995000888
:10006000A995000819200008A99500083D2000085E
:10007000A9950008A995000891200008A52000086E
:10008000A9950008A995000829200008B9200008B2
:10009000CD200008A9950008A9950008A995000899
:1000A000A9950008A9950008A9950008A995000838
:1000B000A99500085520000869200008A9950008A6
:1000C000A9950008A9950008A9950008A995000818
:1000D000A99500087D200008A9950008A9950008A9
:1000E000A9950008A9950008A9950008000000003E
:1000F0000000000000000000000000000000000000
:0C01000000000000000000005FF808F1A3
:1001100010B5054C237833B9044B13B10448AFF341
:1001200000800123237010BD0803002000000000A0
:1001300098B8000808B5034B1BB103490348AFF357
:10014000008008BD000000000C03002098B80008E3
:10015000034613F8012B002AFBD1181A0138704707
:1001600081F0004102E000BF83F0004330B54FEA68
:1001700041044FEA430594EA050F08BF90EA020FD5
:100180001FBF54EA000C55EA020C7FEA645C7FEA68
:10019000655C00F0E2804FEA5454D4EB5555B8BF8B
:1001A0006D420CDD2C4480EA020281EA030382EAFC
:1001B000000083EA010180EA020281EA0303362D8E
:1001C00088BF30BD11F0004F4FEA01314FF4801C61
:1001D0004CEA113102D0404261EB410113F0004F73
:1001E0004FEA03334CEA133302D0524263EB43032A
:1001F00094EA050F00F0A780A4F10104D5F1200EC8
:100200000DDB02FA0EFC22FA05F2801841F1000122
:1002100003FA0EF2801843FA05F359410EE0A5F1F6
:1002200020050EF1200E012A03FA0EFC28BF4CF027
:10023000020C43FA05F3C01851EBE37101F00045DD
:1002400007D54FF0000EDCF1000C7EEB00006EEBEA
:100250000101B1F5801F1BD3B1F5001F0CD3490874
:100260005FEA30004FEA3C0C04F101044FEA4452CB
:1002700012F5800F80F09A80BCF1004F08BF5FEA52
:10028000500C50F1000041EB045141EA050130BD32
:100290005FEA4C0C404141EB010111F4801FA4F1D5
:1002A0000104E9D191F0000F04BF01460020B1FA2A
:1002B00081F308BF2033A3F10B03B3F120020CDA62
:1002C0000C3208DD02F1140CC2F10C0201FA0CF040
:1002D00021FA02F10CE002F11402D8BFC2F1200CA5
:1002E00001FA02F120FA0CFCDCBF41EA0C0190405B
:1002F000E41AA2BF01EB0451294330BD6FEA0404A4
:100300001F3C1CDA0C340EDC04F11404C4F120028E
:1003100020FA04F001FA02F340EA030021FA04F3A0
:1003200045EA030130BDC4F10C04C4F1200220FAF7
:1003300002F001FA04F340EA0300294630BD21FA35
:1003400004F0294630BD94F0000F83F4801306BFFB
:1003500081F480110134013D4EE77FEA645C18BFEF
:100360007FEA655C29D094EA050F08BF90EA020F86
:1003700005D054EA000C04BF1946104630BD91EA7E
:10038000030F1EBF0021002030BD5FEA545C05D181
:100390004000494128BF41F0004130BD14F58004C0
:1003A0003CBF01F5801130BD01F0004545F0FE4134
:1003B00041F470014FF0000030BD7FEA645C1ABF69
:1003C000194610467FEA655C1CBF0B46024650EAA0
:1003D000013406BF52EA033591EA030F41F40021CC
:1003E00030BD00BF90F0000F04BF0021704730B552
:1003F0004FF4806404F132044FF000054FF0000127
:1004000050E700BF90F0000F04BF0021704730B5E7
:100410004FF4806404F1320410F0004548BF4042BC
:100420004FF000013EE700BF42004FEAE2014FEA11
:1004300031014FEA02701FBF12F07F4393F07F4FEC
:1004400081F06051704732F07F4208BF704793F0EF
:100450007F4F04BF41F40021704730B54FF4607402
:1004600001F0004521F000411CE700BF50EA010205
:1004700008BF704730B54FF000050AE050EA0102AE
:1004800008BF704730B511F0004502D5404261EB1E
:1004900041014FF4806404F132045FEA915C3FF45F
:1004A000D8AE4FF003025FEADC0C18BF03325FEAFC
:1004B000DC0C18BF033202EBDC02C2F1200300FAAD
:1004C00003FC20FA02F001FA03FE40EA0E0021FAD2
:1004D00002F11444BDE600BF70B54FF0FF0C4CF4C0
:1004E000E06C1CEA11541DBF1CEA135594EA0C0F72
:1004F00095EA0C0F00F0DEF82C4481EA030621EAAD
:100500004C5123EA4C5350EA013518BF52EA0335E7
:1005100041F4801143F4801338D0A0FB02CE4FF099
:100520000005E1FB02E506F00042E0FB03E54FF0C9
:100530000006E1FB03569CF0000F18BF4EF0010EC1
:10054000A4F1FF04B6F5007F64F5407404D25FEABD
:100550004E0E6D4146EB060642EAC62141EA555170
:100560004FEAC52040EA5E504FEACE2EB4F1FD0CB2
:1005700088BFBCF5E06F1ED8BEF1004F08BF5FEA30
:10058000500E50F1000041EB045170BD06F00046E2
:1005900046EA010140EA020081EA0301B4EB5C048F
:1005A000C2BFD4EB0C0541EA045170BD41F4801187
:1005B0004FF0000E013C00F3AB8014F1360FDEBFAC
:1005C000002001F0004170BDC4F10004203C35DA88
:1005D0000C341BDC04F11404C4F1200500FA05F30B
:1005E00020FA04F001FA05F240EA020001F00042AC
:1005F00021F0004110EBD37021FA04F642EB060122
:100600005EEA430E08BF20EAD37070BDC4F10C044B
:10061000C4F1200500FA04F320FA05F001FA04F20F
:1006200040EA020001F0004110EBD37041F10001FB
:100630005EEA430E08BF20EAD37070BDC4F1200506
:1006400000FA05F24EEA020E20FA04F301FA05F26E
:1006500043EA020321FA04F001F0004121FA04F216
:1006600020EA020000EBD3705EEA430E08BF20EAE6
:10067000D37070BD94F0000F0FD101F00046400020
:1006800041EB010111F4801F08BF013CF7D041EAA2
:10069000060195F0000F18BF704703F000465200A6
:1006A00043EB030313F4801F08BF013DF7D043EA77
:1006B0000603704794EA0C0F0CEA135518BF95EA2D
:1006C0000C0F0CD050EA410618BF52EA4306D1D1B4
:1006D00081EA030101F000414FF0000070BD50EAD3
:1006E000410606BF1046194652EA430619D094EA5D
:1006F0000C0F02D150EA013613D195EA0C0F05D147
:1007000052EA03361CBF104619460AD181EA03019A
:1007100001F0004141F0FE4141F470014FF0000052
:1007200070BD41F0FE4141F4780170BD70B54FF0ED
:10073000FF0C4CF4E06C1CEA11541DBF1CEA13556D
:1007400094EA0C0F95EA0C0F00F0A7F8A4EB05044F
:1007500081EA030E52EA03354FEA013100F0888046
:100760004FEA03334FF0805545EA131343EA12630F
:100770004FEA022245EA111545EA10654FEA0026C4
:100780000EF000419D4208BF964244F1FD0404F57D
:10079000407402D25B084FEA3202B61A65EB0305D9
:1007A0005B084FEA32024FF480104FF4002CB6EB96
:1007B000020E75EB030E22BFB61A754640EA0C0016
:1007C0005B084FEA3202B6EB020E75EB030E22BF56
:1007D000B61A754640EA5C005B084FEA3202B6EB97
:1007E000020E75EB030E22BFB61A754640EA9C0056
:1007F0005B084FEA3202B6EB020E75EB030E22BF26
:10080000B61A754640EADC0055EA060E18D04FEAE3
:10081000051545EA16754FEA06164FEAC30343EA83
:1008200052734FEAC2025FEA1C1CC0D111F4801F50
:100830000BD141EA00014FF000004FF0004CB6E749
:1008400011F4801F04BF01430020B4F1FD0C88BFE8
:10085000BCF5E06F3FF6AFAEB5EB030C04BFB6EBF3
:10086000020C5FEA500C50F1000041EB045170BDE6
:100870000EF0004E4EEA113114EB5C04C2BFD4EB13
:100880000C0541EA045170BD41F480114FF0000E97
:10089000013C90E645EA060E8DE60CEA135594EA13
:1008A0000C0F08BF95EA0C0F3FF43BAF94EA0C0F16
:1008B0000AD150EA01347FF434AF95EA0C0F7FF48B
:1008C00025AF104619462CE795EA0C0F06D152EADF
:1008D00003353FF4FDAE1046194622E750EA4106C3
:1008E00018BF52EA43067FF4C5AE50EA41047FF4D4
:1008F0000DAF52EA43057FF4EBAE12E74FF0FF3C39
:1009000006E000BF4FF0010C02E000BF4FF0010C09
:100910004DF804CD4FEA410C7FEA6C5C4FEA430C82
:1009200018BF7FEA6C5C1BD001B050EA410C0CBFD1
:1009300052EA430C91EA030F02BF90EA020F002033
:10094000704710F1000F91EA030F58BF994208BF9A
:1009500090422CBFD8176FEAE37040F00100704757
:100960004FEA410C7FEA6C5C02D150EA013C07D1AE
:100970004FEA430C7FEA6C5CD6D152EA033CD3D0F9
:100980005DF8040B704700BF8446104662468C46F3
:100990001946634600E000BF01B5FFF7B7FF002826
:1009A00048BF10F1000F01BD4DF808EDFFF7F4FF4F
:1009B0000CBF012000205DF808FB00BF4DF808EDDA
:1009C000FFF7EAFF34BF012000205DF808FB00BFFD
:1009D0004DF808EDFFF7E0FF94BF012000205DF81F
:1009E00008FB00BF4DF808EDFFF7CEFF94BF0120D4
:1009F00000205DF808FB00BF4DF808EDFFF7C4FFCD
:100A000034BF012000205DF808FB00BF4FEA410C15
:100A10007FEA6C5C02D150EA013C0AD14FEA430CF8
:100A20007FEA6C5C02D152EA033C02D14FF0000035
:100A300070474FF0010070474FEA410212F5001273
:100A400015D211D56FF47873B3EB625212D94FEA15
:100A5000C12343F0004343EA505311F0004F23FAFF
:100A600002F018BF404270474FF00000704750EA54
:100A7000013005D111F0004008BF6FF00040704711
:100A80004FF00000704700BF80B500AF0449054833
:100A900006F030F803461A46034B1A7000BF80BDBB
:100AA000B805002004000020BC05002080B500AF80
:100AB00008F052FC00BF80BD80B500AF08F058FCC4
:100AC00000BF80BD80B582B000AF0346FB7100BFA0
:100AD000084804F031F80346012BF9D1F91D4FF411
:100AE0007A730122034803F051FD00BF0837BD4669
:100AF00080BD00BF8011002080B584B002AF00230C
:100B0000FB71FF23BB7100BF094804F015F80346D1
:100B1000012BF9D1FA1DB91D4FF47A73009301230B
:100B2000034803F067FEFB7918460837BD4680BDD1
:100B30008011002080B582B000AF7860FFF7DCFF45
:100B400003461A467B681A7000BF0837BD4680BD51
:100B500080B582B000AF01F055FB7860FFF7CCFFA5
:100B6000FFF7CAFF0346FB70FB78FF2B07D001F0AD
:100B700049FB02467B68D31AB3F5FA7FF0D3FB78C2
:100B800018460837BD4680BD80B586B000AF41F637
:100B9000FF737B61FFF790FF00233B6105E0FF20BF
:100BA000FFF790FF3B6901333B613B69092BF6DDA1
:100BB000FFF77CFF40233B7100237B710023BB7157
:100BC0000023FB7100233B7295237B720023FB60A3
:100BD00009E03A1DFB6813441B781846FFF772FFC3
:100BE000FB680133FB60FB68052BF2DD02E07B69EB
:100BF000013B7B61FFF780FF0346012B02D07B693D
:100C0000002BF4D1FFF758FFFF20FFF75BFF034BEA
:100C100001221A7000BF1837BD4680BD2503002091
:100C200080B400AF034B00221A7000BFBD4680BCE9
:100C3000704700BF2503002080B400AF024B1B7833
:100C40001846BD4680BC70472503002080B584B09F
:100C500000AF7860396001F0D5FAF860FFF74CFF1B
:100C60000346FB72FB7AFF2B06D101F0CBFA02465A
:100C7000FB68D31A632BF1D9FB7AFE2B01D000233A
:100C800016E07B685A1C7A601846FFF753FF7B68B2
:100C90005A1C7A601846FFF74DFF3B68023B3B60E9
:100CA0003B68002BEDD1FFF727FFFFF725FF01235E
:100CB00018461037BD4680BD80B584B000AF78605F
:100CC0000B46FB7000237B73FFF742FF0346FF2BAD
:100CD00001D0002340E0FB781846FFF7F3FEFB78D5
:100CE000FD2B31D00023BB737B685A1C7A601B78C4
:100CF0001846FFF7E7FE7B685A1C7A601B78184697
:100D0000FFF7E0FEBB7B013BBB73BB7B002BEBD152
:100D1000FFF7F2FEFFF7F0FE0BE0FFF7EDFE0346F4
:100D2000FB73FB7B03F01F03052B06D07B7B01339A
:100D30007B737B7B402BF0D900E000BF00BFFFF747
:100D4000DBFE0346002BFAD0FB7B03F01F03052BD1
:100D500001D1012300E0002318461037BD4680BDB5
:100D600080B584B000AF03463960FB71FFF7F0FE39
:100D70000346FF2B01D0FF2340E0FB791846FFF725
:100D8000A1FE3B681B0EDBB21846FFF79BFE3B68DB
:100D90001B0CDBB21846FFF795FE3B681B0ADBB263
:100DA0001846FFF78FFE3B68DBB21846FFF78AFE56
:100DB0000023FB73FB79402B01D19523FB73FB7957
:100DC000482B01D18723FB73FB7B1846FFF77AFE84
:100DD000FB794C2B01D1FFF78FFE0A23BB73FFF782
:100DE0008BFE03467B7397F90D30002B05DABB7B36
:100DF000013BBB73BB7B002BF1D17B7B18461037CB
:100E0000BD4680BD80B588B000AF78600023FB7719
:100E1000FFF74CFE00214920FFF7A2FF0346002BFD
:100E200042D107F1080310211846FFF70FFF0346D0
:100E3000002B39D03B7A9B09DBB2012B0BD17B7C99
:100E40001A463B7C1B0213440133BB61BB699A0207
:100E50007B681A6026E07B7B03F00F03DAB2BB7C71
:100E6000DB09DBB21344DAB27B7C5B00DBB203F05C
:100E70000603DBB21344DBB20233BB773B7C9B0936
:100E8000DBB21A46FB7B9B001A44BB7B9B0203F43C
:100E9000406313440133BB61BB7F093BBA699A408D
:100EA0007B681A600123FB77FFF706FEFFF724FE3D
:100EB000FB7F18462037BD4680BD80B483B000AFAD
:100EC00078607B684FF400721A60012318460C3773
:100ED000BD4680BC704780B582B000AF0346FB7151
:100EE000FB79002B02D0FFF74FFE01E0FFF798FEE1
:100EF00000BF0837BD4680BD80B500AFFFF79CFE40
:100F00000346002B14BF01230023DBB2184680BD2B
:100F100080B582B000AF0023FB71FFF7C7FDFFF77C
:100F200017FE0346FF2B01D10123FB71FFF7C4FD20
:100F3000FFF7E2FDFB7918460837BD4680BD80B556
:100F400084B000AF78600023FB73FFF7AFFD7B68D0
:100F5000BB6000214920FFF703FF0346002B08D1A7
:100F60001021B868FFF772FE0346002B01D0012361
:100F7000FB73FFF7A1FDFFF7BFFDFB7B18461037A2
:100F8000BD4680BD80B584B000AF78607B68BB6033
:100F90000023FB73FFF78AFD00214A20FFF7E0FEE4
:100FA0000346002B08D11021B868FFF74FFE034617
:100FB000002B01D00123FB73FFF77EFDFFF79CFDA3
:100FC000FB7B18461037BD4680BD90B587B000AF9B
:100FD00078607B683B610023FB73FFF767FD0021AE
:100FE0007A20FFF7BDFE0346002B11D10023FB75CD
:100FF00009E03C69631C3B61FFF77EFD03462370FB
:10100000FB7D0133FB75FB7D032BF2D90123FB73C1
:10101000FFF752FDFFF770FDFB7B18461C37BD46FE
:1010200090BD000090B585B000AF734B1B78DBB26C
:1010300003F00203002B03D06F4B1B78DBB2D7E029
:10104000FFF7A2FDFFF732FD0023BB730021402014
:10105000FFF786FE0346012B40F0B28001F0D2F884
:10106000B8604FF4D5714820FFF77AFE0346012B94
:101070005FD10023FB730CE0FC7BFFF73DFD0346D3
:101080001A4607F11003234403F80C2CFB7B0133B1
:10109000FB73FB7B032BEFD9BB79012B40F09080D6
:1010A000FB79AA2B40F08C8000217720FFF758FEB7
:1010B0000346012B07D84FF080416920FFF750FE0F
:1010C0000346002B08D001F09DF80246BB68D31AF6
:1010D000B3F57A7FE8D300E000BF01F093F8024651
:1010E000BB68D31AB3F57A7F6AD200217A20FFF762
:1010F00037FE0346002B63D10023FB730CE0FC7B1F
:10110000FFF7FAFC03461A4607F11003234403F8DD
:101110000C2CFB7B0133FB73FB7B032BEFD93B795F
:1011200003F04003002B01D0062300E00223BB7331
:1011300046E000217720FFF713FE0346012B08D875
:1011400000216920FFF70CFE0346012B01D8022382
:1011500000E00123BB73BB7B022B0ED10021772063
:10116000FFF7FEFD0346012B0ED800216920FFF793
:10117000F7FD0346002B07D110E000214120FFF7C7
:10118000EFFD0346002B08D001F03CF80246BB6897
:10119000D31AB3F57A7FDED300E000BF01F032F856
:1011A0000246BB68D31AB3F57A7F07D84FF40071B3
:1011B0005020FFF7D5FD0346002B01D00023BB7361
:1011C0000E4ABB7B1370FFF777FCFFF795FCBB7BE8
:1011D000002B08D0084B1B78DBB223F00103DAB2F6
:1011E000054B1A7001E0FFF71BFD034B1B78DBB2C8
:1011F00018461437BD4690BD00000020240300208F
:1012000080B400AF034B1B78DBB21846BD4680BCF0
:10121000704700BF0000002080B582B000AF78604A
:1012200039603868FFF7EEFD7868FFF746FE00BFCB
:101230000837BD4680BD000080B584B000AFF860BF
:10124000B9607A602C4B1B78DBB203F00103002BF2
:1012500001D000234BE0294B1B7803F00403002B43
:1012600002D1BB685B02BB60FFF720FC7B68012BEF
:1012700011D1B9685120FFF773FD0346002B2CD123
:101280004FF40071F868FFF7E1FC0346002B24D00F
:1012900000237B6021E0B9685220FFF761FD03461F
:1012A000002B1AD14FF40071F868FFF7CFFC03460A
:1012B00083F00103DBB2002B0AD1FB6803F5007356
:1012C000FB607B68013B7B607B68002BEAD100E020
:1012D00000BF00214C20FFF743FDFFF7EDFBFFF7B8
:1012E0000BFC7B68002B0CBF01230023DBB21846EC
:1012F0001037BD4680BD00BF000000202403002041
:1013000080B584B000AFF860B9607A603A4B1B7862
:10131000DBB203F00103002B01D0002368E0364B61
:101320001B78DBB203F00403002B01D000235FE045
:10133000324B1B7803F00403002B02D1BB685B0225
:10134000BB60FFF7B3FB7B68012B10D1B968582055
:10135000FFF706FD0346002B40D1FE21F868FFF79A
:10136000ABFC0346002B39D000237B6036E0234BD7
:101370001B7803F00203002B07D000217720FFF732
:10138000EFFC79685720FFF7EBFCB9685920FFF7AD
:10139000E7FC0346002B21D1FC21F868FFF78CFC09
:1013A000034683F00103DBB2002B0AD1FB6803F58F
:1013B0000073FB607B68013B7B607B68002BEBD19B
:1013C00000E000BFFD210020FFF776FC034683F01C
:1013D0000103DBB2002B01D001237B60FFF76CFB24
:1013E000FFF78AFB7B68002B0CBF01230023DBB2D5
:1013F00018461037BD4680BD0000002024030020A1
:1014000080B582B000AF0346FB71FFF70BFE0346C9
:1014100018460837BD4680BD80B582B000AF034690
:10142000FB71FFF7EDFE0346002B07D1074B1B783E
:10143000DBB223F00103DAB2044B1A70034B1B78C2
:10144000DBB218460837BD4680BD00BF0100002052
:1014500080B584B000AFB9607A603B600346FB732F
:101460003A687968B868FFF7E7FE0346002B01D0B9
:10147000002300E0012318461037BD4680BD80B52B
:1014800084B000AFB9607A603B600346FB733A6892
:101490007968B868FFF734FF0346002B01D00023BA
:1014A00000E0012318461037BD4680BD80B586B0E8
:1014B00000AF03463A60FB710B46BB713B683B6172
:1014C0000123FB754F4B1B78DBB203F00103002BAC
:1014D00001D0032392E0BB790D2B00F2808001A2A2
:1014E00052F823F0551500081D150008391500089D
:1014F000DF150008DF1500089B150008DF15000840
:10150000DF150008DF150008DF150008DF150008EB
:1015100065150008771500088915000807F10C0308
:101520001846FFF76FFC0346002B5BD0FA683B6858
:101530001A600023FB7555E007F108031846FFF712
:10154000BCFC0346002B4FD0BA683B681A600023EE
:10155000FB7549E0FFF7DCFC0346002B46D0002377
:10156000FB7543E03868FFF7EAFC0346002B3FD0E9
:101570000023FB753CE03868FFF704FD0346002BB1
:1015800038D00023FB7535E03868FFF71EFD0346B1
:10159000002B31D00023FB752EE03B691B78012B1B
:1015A00009D0022B0DD0002B15D10020FFF793FCA2
:1015B0000023FB7512E00120FFF78DFC0023FB7573
:1015C0000CE0FFF799FC03461A463B6901331A7099
:1015D0000023FB7502E00423FB7500BF0DE004232C
:1015E000FB750AE000BF08E000BF06E000BF04E0B2
:1015F00000BF02E000BF00E000BFFB7D18461837C7
:10160000BD4680BD0100002080B500AF0122104919
:10161000104806F0A9FC0346002B13D10E490D48D3
:1016200006F0CDFC0346002B0ED10C49094805F00D
:101630007DFC0346002B09D1064806F0D9FC034681
:10164000002B04E000BF02E000BF00E000BF80BD4F
:10165000180000201C0A00209400002068000020D0
:1016600080B584B000AF78607B681B68114A9342F4
:101670001BD1114BDB69104A43F40003D3610E4BBD
:10168000DB6903F40003FB60FB68002205211320E3
:1016900000F091FF132000F0AAFF00220521142082
:1016A00000F089FF142000F0A2FF00BF1037BD46F4
:1016B00080BD00BF005C00400010024080B582B0D9
:1016C00000AF78607B68D3F868227B6803F50C7301
:1016D0001946104606F0D4FC00BF0837BD4680BD51
:1016E00080B582B000AF78600B46FB707B68D3F8A2
:1016F0006802FB787A685B01134403F59E731A68ED
:10170000FB78194606F007FD00BF0837BD4680BDCF
:1017100080B582B000AF78600B46FB707B68D3F871
:101720006802FB787A685B0113443C331A68FB78E3
:10173000194606F061FD00BF0837BD4680BD80B583
:1017400082B000AF78607B68D3F86832184606F044
:1017500071FE00BF0837BD4680BD80B584B000AFC4
:1017600078600123FB737B689B68022B0ED17B683A
:10177000D3F86832FA7B1146184606F023FE7B68E0
:10178000D3F86832184606F0DCFD00E000BF1037E1
:10179000BD4680BD80B582B000AF78607B68D3F86D
:1017A0006832184606F01DFE7B689B69002B05D049
:1017B000044B1B69034A43F00603136100BF08375B
:1017C000BD4680BD00ED00E080B582B000AF78601E
:1017D0007B68D3F86832184606F017FE00BF08375A
:1017E000BD4680BD80B582B000AF7860234A7B687B
:1017F000C2F868327B68214AC3F8C0221F4B204AD6
:101800001A601E4B08225A601C4B02229A601B4B26
:1018100000229A61194B0022DA61184B00221A62E9
:10182000164801F069FA0346002B01D0022320E09C
:101830007B68D3F8C00218230022002102F02EF9A1
:101840007B68D3F8C00258230022802102F026F9D9
:101850007B68D3F8C00298230022812102F01EF990
:101860007B68D3F8C002D8230022012102F016F9C8
:10187000002318460837BD4680BD00BFE00C00209D
:10188000005C004080B584B000AF78600023FB733B
:101890000023BB737B68D3F8C032184601F00DFB00
:1018A0000346FB73FB7B184600F066F90346BB73E7
:1018B000BB7B18461037BD4680BD80B584B000AFF5
:1018C0007860084611461A460346FB700B46BB700B
:1018D00013463B800023FB730023BB737B68D3F864
:1018E000C002BB783A88F97801F040FC0346FB73EC
:1018F000FB7B184600F040F90346BB73BB7B1846E0
:101900001037BD4680BD80B584B000AF78600B460F
:10191000FB700023FB730023BB737B68D3F8C032DA
:10192000FA781146184601F081FC0346FB73FB7BF5
:10193000184600F021F90346BB73BB7B18461037ED
:10194000BD4680BD80B584B000AF78600B46FB70AB
:101950000023FB730023BB737B68D3F8C032FA7893
:101960001146184601F0D3FD0346FB73FB7B184676
:1019700000F002F90346BB73BB7B18461037BD4627
:1019800080BD80B584B000AF78600B46FB7000234B
:10199000FB730023BB737B68D3F8C032FA7811461F
:1019A000184601F00CFD0346FB73FB7B184600F064
:1019B000E3F80346BB73BB7B18461037BD4680BDBA
:1019C00080B584B000AF78600B46FB700023FB73DA
:1019D0000023BB737B68D3F8C032FA7811461846EF
:1019E00001F047FD0346FB73FB7B184600F0C4F88B
:1019F0000346BB73BB7B18461037BD4680BD80B421
:101A000085B000AF78600B46FB707B68D3F8C032BE
:101A1000FB6097F90330002B08DAFB7803F07F03B3
:101A2000FA685B0113442A331B7808E0FB7803F063
:101A30007F03FA685B01134403F595731B7818461E
:101A40001437BD4680BC704780B584B000AF786065
:101A50000B46FB700023FB730023BB737B68D3F83A
:101A6000C032FA781146184601F05BFB0346FB735F
:101A7000FB7B184600F080F80346BB73BB7B18461F
:101A80001037BD4680BD80B586B000AFF8607A6083
:101A90001A460B46FB7213463B810023FB7500235D
:101AA000BB75FB68D3F8C0023B89F97A7A6801F00C
:101AB0004DFC0346FB75FB7D184600F05DF80346C0
:101AC000BB75BB7D18461837BD4680BD80B586B056
:101AD00000AFF8607A601A460B46FB7213463B81F2
:101AE0000023FB750023BB75FB68D3F8C0023B895C
:101AF000F97A7A6801F0DCFB0346FB75FB7D18463A
:101B000000F03AF80346BB75BB7D18461837BD4652
:101B100080BD80B582B000AF78600B46FB707B68FB
:101B2000D3F8C032FA781146184601F0FBFB0346A1
:101B300018460837BD4680BD80B483B000AF7860DA
:101B4000024B18460C37BD4680BC70472803002066
:101B500080B483B000AF786000BF0C37BD4680BC56
:101B6000704780B483B000AF78600B46FB7000BF55
:101B70000C37BD4680BC704780B485B000AF0346CB
:101B8000FB710023FB73FB79032B17D801A252F8DA
:101B900023F000BFA51B0008AB1B0008B11B000809
:101BA000B71B00080023FB730BE00223FB7308E064
:101BB0000123FB7305E00223FB7302E00223FB73A6
:101BC00000BFFB7B18461437BD4680BC704700BF82
:101BD00080B483B000AF03463960FB713B681222CA
:101BE0001A80034B18460C37BD4680BC704700BFB7
:101BF0003400002080B483B000AF03463960FB712D
:101C00003B6804221A80034B18460C37BD4680BC43
:101C1000704700BF4800002080B582B000AF034687
:101C20003960FB71FB79002B05D13A6807490848F8
:101C300007F049F904E03A680449054807F043F918
:101C4000024B18460837BD4680BD00BF4C0F002030
:101C5000B0B8000880B582B000AF03463960FB71B0
:101C60003A680449044807F02EF9024B1846083731
:101C7000BD4680BD4C0F0020C4B8000880B582B0BE
:101C800000AF03463960FB713B681A221A8000F0EE
:101C900043F8024B18460837BD4680BD4C00002073
:101CA00080B582B000AF03463960FB71FB79002B31
:101CB00005D13A680749084807F005F904E03A6891
:101CC0000449054807F0FFF8024B18460837BD469F
:101CD00080BD00BF4C0F0020D8B8000880B582B08E
:101CE00000AF03463960FB71FB79002B05D13A68E0
:101CF0000749084807F0E7F804E03A68044905484E
:101D000007F0E1F8024B18460837BD4680BD00BF1A
:101D10004C0F0020E4B8000880B584B000AF0F4B32
:101D20001B68FB600E4B1B68BB600E4B1B687B6027
:101D3000FA687B681344FB60FB68002B09D008221B
:101D40000949F86800F014F804220849B86800F05E
:101D50000FF800BF1037BD4680BD00BFE8F7FF1F7A
:101D6000ECF7FF1FF0F7FF1F4E0000205E00002081
:101D700080B487B000AFF860B9601346FB710023F0
:101D8000FB750023FB7527E0FB681B0F092B0BD8A5
:101D9000FB681B0FDAB2FB7D5B001946BB680B4486
:101DA0003032D2B21A700AE0FB681B0FDAB2FB7D48
:101DB0005B001946BB680B443732D2B21A70FB681D
:101DC0001B01FB60FB7D5B000133BA6813440022FA
:101DD0001A70FB7D0133FB75FA7DFB799A42D3D3F0
:101DE00000BF1C37BD4680BC704780B582B000AFD5
:101DF0000346FB71FFF716F9002318460837BD4666
:101E000080BD80B584B000AF0346B9607A60FB73D3
:101E1000B9687868FFF700FA002318461037BD4606
:101E200080BD80B582B000AF0346FB71FFF7E8F9D3
:101E30000346002B01D1002300E000231846083799
:101E4000BD4680BD80B483B000AF0346FB71002364
:101E500018460C37BD4680BC704780B586B000AFD1
:101E6000B9607A601A460346FB731346BB81FF23B1
:101E7000FB75BB891A467968B868FFF7DDF9034638
:101E8000002B01D00023FB7500BFFFF7B9F9034613
:101E9000002BFAD197F9173018461837BD4680BD88
:101EA00080B586B000AFB9607A601A460346FB730E
:101EB0001346BB81FF23FB75BB891A467968B86856
:101EC000FFF71EFA0346002B01D00023FB7500BF6D
:101ED000FFF796F90346002BFAD197F91730184609
:101EE0001837BD4680BD80B400AF00231846BD46FC
:101EF00080BC704780B400AF034B02221A7000BF51
:101F0000BD4680BC704700BF9805002080B500AF7B
:101F100000F01AF907F006F907F094F807F0D6F880
:101F200007F032FA07F074FA07F05EF907F0A0F94B
:101F3000FEF7AAFD642000F06FF9FFF765FB024889
:101F400007F0FAFEFEE700BFF4B8000880B582B0E3
:101F500000AF7860FFF7CEFF00BF0837BD4680BDF9
:101F600080B584B000AF78607B68DBB23B7307F16B
:101F70000C0164230122044803F010F87B68184622
:101F80001037BD4680BD00BF2013002080B586B04D
:101F900000AFF860B9607A6000237B6109E0BB683C
:101FA0005A1CBA601B781846FFF7DAFF7B690133C9
:101FB0007B617A697B689A42F1DB7B681846183747
:101FC000BD4680BD80B400AF00BFBD4680BC704739
:101FD00080B400AFFEE780B400AFFEE780B400AF8E
:101FE000FEE780B400AFFEE780B400AF00BFBD469F
:101FF00080BC704780B400AF00BFBD4680BC704756
:1020000080B400AF00BFBD4680BC704780B500AF54
:1020100000F0E6F800BF80BD80B500AF082000F0FA
:1020200049FE00BF80BD000080B500AF024800F04F
:1020300015F900BF80BD00BF5011002080B500AF72
:10204000034B1B6A184600F0BDFB00BF80BD00BFFC
:102050005011002080B500AF024802F002FE00BF20
:1020600080BD00BF1812002080B500AF024802F00A
:10207000F8FD00BF80BD00BFD811002080B500AFC3
:10208000024803F025F800BF80BD00BF20130020E8
:1020900080B500AF024800F095FB00BF80BD00BFD7
:1020A000DC12002080B500AF024800F08BFB00BFBF
:1020B00080BD00BF9812002080B500AF024800F03C
:1020C00022FF00BF80BD00BFE00C002080B500AF44
:1020D000024800F018FF00BF80BD00BFE00C0020E8
:1020E00080B400AF154B1B68144A43F00103136022
:1020F000124B5A681149124B13404B600F4B1B682F
:102100000E4A23F0847323F4803313600B4B1B6857
:102110000A4A23F480231360084B5B68074A23F4C0
:10212000FE035360054B4FF41F029A60054B4FF0BE
:1021300000629A6000BFBD4680BC7047001002403C
:102140000000FFF800ED00E080B500AF084B1B6811
:10215000074A43F010031360032000F021FA002027
:1021600000F00EF800F006F80023184680BD00BF0E
:102170000020024080B400AF00BFBD4680BC704765
:1021800080B582B000AF7860124B1A68124B1B7892
:1021900019464FF47A73B3FBF1F3B2FBF3F318462D
:1021A00000F033FA0346002B01D001230EE07B68D8
:1021B0000F2B0AD8002279684FF0FF3000F0FBF9AE
:1021C000064A7B681360002300E0012318460837A5
:1021D000BD4680BD88000020900000208C000020BB
:1021E00080B400AF054B1B781A46054B1B6813449F
:1021F000034A136000BFBD4680BC704790000020BA
:102200004C11002080B400AF024B1B681846BD463D
:1022100080BC70474C11002080B584B000AF78605E
:10222000FFF7F0FFB8607B68FB60FB68B3F1FF3F2E
:1022300005D0094B1B781A46FB681344FB6000BFAE
:10224000FFF7E0FF0246BB68D31AFA689A42F7D854
:1022500000BF1037BD4680BD9000002080B582B021
:1022600000AF78607B681B685B6803F02003202B5D
:1022700040D17B681B681B6803F00203022B39D135
:102280007B689B6A03F01003002B05D17B689B6A77
:1022900043F400727B689A627B681B689B6803F456
:1022A0006023B3F5602F1DD17B681B7B002B19D1F8
:1022B0007B681B685A687B681B6822F020025A60A2
:1022C0007B689B6A23F480727B689A627B689B6A56
:1022D00003F48053002B05D17B689B6A43F0010215
:1022E0007B689A627868FFF731FE7B681B686FF045
:1022F00012021A607B681B685B6803F08003802B06
:102300004FD17B681B681B6803F00403042B48D182
:102310007B689B6A03F01003002B05D17B689B6AE6
:1023200043F400527B689A627B681B689B6803F4E5
:10233000E043B3F5E04F12D07B681B685B6803F4A1
:102340008063002B25D17B681B689B6803F46023A6
:10235000B3F5602F1DD17B681B7B002B19D17B68E7
:102360001B685A687B681B6822F080025A607B6891
:102370009B6A23F480527B689A627B689B6A03F4B1
:102380008073002B05D17B689B6A43F001027B6858
:102390009A62786800F02EF87B681B686FF00C0278
:1023A0001A607B681B685B6803F04003402B14D104
:1023B0007B681B681B6803F00103012B0DD17B6850
:1023C0009B6A43F480327B689A62786800F009F86F
:1023D0007B681B686FF001021A6000BF0837BD46BA
:1023E00080BD80B483B000AF786000BF0C37BD46BD
:1023F00080BC704780B483B000AF786000BF0C37FA
:10240000BD4680BC7047000080B485B000AF7860E6
:102410007B6803F00703FB600C4BDB68BB60BA68AA
:102420004FF6FF031340BB60FB681A02BB681343FF
:1024300043F0BF6343F40033BB60044ABB68D3601E
:1024400000BF1437BD4680BC704700BF00ED00E000
:1024500080B400AF044BDB681B0A03F00703184687
:10246000BD4680BC704700BF00ED00E080B483B083
:1024700000AF0346FB7197F90730002B0BDBFB79AC
:1024800003F01F02064997F907305B09012000FAA3
:1024900002F241F8232000BF0C37BD4680BC7047D4
:1024A00000E100E080B483B000AF03463960FB7107
:1024B00097F90730002B0ADB3B68DAB20C4997F931
:1024C00007301201D2B20B4483F800230AE03B68C4
:1024D000DAB20849FB7903F00F03043B1201D2B2D0
:1024E0000B441A7600BF0C37BD4680BC704700BF56
:1024F00000E100E000ED00E080B489B000AFF860DA
:10250000B9607A60FB6803F00703FB61FB69C3F104
:102510000703042B28BF0423BB61FB690433062B8C
:1025200002D9FB69033B00E000237B614FF0FF32DF
:10253000BB6902FA03F3DA43BB681A407B699A402D
:102540004FF0FF317B6901FA03F3D9437B680B40FD
:10255000134318462437BD4680BC704780B582B00F
:1025600000AF78607B68013BB3F1807F01D301232A
:102570000FE00A4A7B68013B53600F214FF0FF30A8
:10258000FFF790FF054B00229A60044B07221A6068
:10259000002318460837BD4680BD00BF10E000E0AC
:1025A00080B582B000AF78607868FFF72DFF00BF7C
:1025B0000837BD4680BD80B586B000AF0346B96020
:1025C0007A60FB7300237B61FFF742FF78617A68D2
:1025D000B9687869FFF790FF024697F90F30114606
:1025E0001846FFF75FFF00BF1837BD4680BD80B5B6
:1025F00082B000AF0346FB7197F907301846FFF72A
:1026000035FF00BF0837BD4680BD80B582B000AF42
:1026100078607868FFF7A2FF034618460837BD4682
:1026200080BD000080B485B000AF78600023FB60FF
:102630007B68002B01D1012343E07B681B681A46AD
:10264000224B1344224AA2FB03231B099A007B68F6
:102650001A647B681F4ADA637B68022283F82120B0
:102660007B681B681B68FB60FB6823F47F5323F0C7
:102670003003FB607B685A687B689B681A437B6801
:10268000DB681A437B681B691A437B685B691A43E2
:102690007B689B691A437B68DB691343FA681343C1
:1026A000FB607B681B68FA681A607B6800229A638B
:1026B0007B68012283F821207B68002283F8202098
:1026C000002318461437BD4680BC7047F8FFFDBF95
:1026D000CDCCCCCC0000024080B584B000AF786097
:1026E0000023FB737B6893F82130022B05D07B68B5
:1026F00004229A630123FB7351E07B681B681A680C
:102700007B681B6822F00E021A607B681B681A68DF
:102710007B681B6822F001021A607B681B68224AF2
:10272000934229D07B681B68204A934222D07B6861
:102730001B681F4A93421AD07B681B681D4A93424C
:1027400012D07B681B681C4A93420AD07B681B68C6
:102750001A4A934202D14FF480130EE04FF0807377
:102760000BE04FF4803308E04FF4805305E04FF462
:10277000807302E0102300E00123114A53607B685C
:10278000012283F821207B68002283F820207B68C7
:102790005B6B002B03D07B685B6B78689847FB7B97
:1027A00018461037BD4680BD080002401C0002409C
:1027B0003000024044000240580002406C000240D9
:1027C0000000024080B584B000AF78607B68DB6BAE
:1027D0001B68FB607B681B681B68BB607B681B6CAD
:1027E00004229A40FB681340002B4FD0BB6803F0D3
:1027F0000403002B4AD07B681B681B6803F020038E
:10280000002B07D17B681B681A687B681B6822F065
:1028100004021A607B681B68664A934229D07B6871
:102820001B68654A934222D07B681B68634A9342C7
:102830001AD07B681B68624A934212D07B681B687F
:10284000604A93420AD07B681B685F4A934202D178
:102850004FF480030EE04FF080630BE04FF48023D1
:1028600008E04FF4804305E04FF4806302E040232A
:1028700000E00423554A53607B68DB6A002B00F0BC
:1028800094807B68DB6A786898478EE07B681B6C75
:1028900002229A40FB681340002B56D0BB6803F01D
:1028A0000203002B51D07B681B681B6803F02003D8
:1028B000002B0BD17B681B681A687B681B6822F0B1
:1028C0000A021A607B68012283F821207B681B685A
:1028D000384A934229D07B681B68374A934222D0FA
:1028E0007B681B68354A93421AD07B681B68344A60
:1028F000934212D07B681B68324A93420AD07B68AD
:102900001B68314A934202D14FF400130EE04FF09E
:1029100000730BE04FF4003308E04FF4005305E080
:102920004FF4007302E0202300E00223274A5360A3
:102930007B68002283F820207B689B6A002B34D0C0
:102940007B689B6A786898472FE07B681B6C08223D
:102950009A40FB681340002B28D0BB6803F00803A3
:10296000002B23D07B681B681A687B681B6822F0E9
:102970000E021A607B681A6C7B68DB6B012101FA1E
:1029800002F25A607B6801229A637B68012283F815
:1029900021207B68002283F820207B681B6B002BA2
:1029A00004D07B681B6B7868984700BF00BF103766
:1029B000BD4680BD080002401C00024030000240BD
:1029C00044000240580002406C00024000000240F7
:1029D00080B48BB000AF7860396000237B62002345
:1029E0003B6227E101227B6A02FA03F3FB613B6849
:1029F0001B68FA691340BB61BA69FB699A4240F0EF
:102A000016813B685B68122B34D0122B0DD8022B39
:102A10002BD0022B04D8002B31D0012B1CD048E046
:102A2000032B43D0112B1BD043E0894A934226D07D
:102A3000874A934206D8874A934220D0864A9342D7
:102A40001DD036E0854A934219D0854A934216D06C
:102A5000844A934213D02CE03B68DB683B6228E059
:102A60003B68DB6804333B6223E03B68DB68083388
:102A70003B621EE03B68DB680C333B6219E03B685D
:102A80009B68002B02D104233B6212E03B689B68E9
:102A9000012B05D108233B627B68FA691A6108E0C3
:102AA00008233B627B68FA695A6102E000233B62BB
:102AB00000BFBB69FF2B01D87B6801E07B68043352
:102AC0007B61BB69FF2B02D87B6A9B0002E07B6ABB
:102AD000083B9B003B617B691A680F213B6901FA47
:102AE00003F3DB431A40396A3B6901FA03F31A43E3
:102AF0007B691A603B685B6803F08053002B00F031
:102B00009680594B9B69584A43F001039361564B99
:102B10009B6903F00103BB60BB68544A7B6A9B0856
:102B2000023352F82330FB607B6A03F003039B00FF
:102B30000F2202FA03F3DB43FA681340FB607B6861
:102B40004B4A934213D07B684A4A93420DD07B682C
:102B5000494A934207D07B68484A934201D10323F4
:102B600006E0042304E0022302E0012300E0002346
:102B70007A6A02F0030292009340FA681343FB6002
:102B80003A497B6A9B080233FA6841F823203B6884
:102B90005B6803F48033002B06D0394B1A68384940
:102BA000BB6913430B6006E0354B1A68BB69DB4316
:102BB000334913400B603B685B6803F40033002B20
:102BC00006D02F4B5A682E49BB6913434B6006E071
:102BD0002B4B5A68BB69DB43294913404B603B6868
:102BE0005B6803F48013002B06D0254B9A682449B8
:102BF000BB6913438B6006E0214B9A68BB69DB43DA
:102C00001F4913408B603B685B6803F40013002B83
:102C100006D01B4BDA681A49BB691343CB6006E048
:102C2000174BDA68BB69DB4315491340CB607B6AFD
:102C300001337B623B681A687B6A22FA03F3002B3C
:102C40007FF4D0AE00BF2C37BD4680BC704700BFBC
:102C500000002110000011100000121000003110BF
:102C6000000032100000221000100240000001405D
:102C700000080140000C0140001001400014014018
:102C80000004014080B483B000AF78600B467B80C5
:102C900013467B707B78002B03D07A887B681A619F
:102CA00003E07B881A047B681A6100BF0C37BD46BD
:102CB00080BC704780B582B000AF0346FB80084BF4
:102CC0005A69FB881340002B06D0054AFB885361E4
:102CD000FB88184600F006F800BF0837BD4680BDE7
:102CE0000004014080B483B000AF0346FB8000BF06
:102CF0000C37BD4680BC7047F0B58BB006AF78602E
:102D00007B68002B01D10123D3E07B6893F8293243
:102D1000DBB2002B06D17B68002283F8282278687A
:102D2000FEF79EFC7B68032283F829227B681B68E0
:102D3000184602F04EFD7B681B683B607E686D465E
:102D400006F110040FCC0FC523682B60331D0ECB8A
:102D5000386802F017FD0346002B05D07B6802227D
:102D600083F829220123A4E07B681B680021184610
:102D700002F04BFD0023FB7335E0FB7B7A685B01BF
:102D80001344293301221A70FB7B7A685B011344D8
:102D90002833FA7B1A70FB7BFA7B91B27A685B016D
:102DA000134436330A461A80FB7B7A685B0113446E
:102DB0002B3300221A70FB7B7A685B011344383393
:102DC00000221A60FB7B7A685B0113443C330022CB
:102DD0001A60FB7B7A6802335B01134400221A609D
:102DE000FB7B0133FB73FA7B7B685B689A42C4D33D
:102DF0000023FB7331E0FB7B7A685B01134403F231
:102E0000291300221A70FB7B7A685B01134403F5D7
:102E10009473FA7B1A70FB7B7A685B01134403F2AC
:102E20002B1300221A70FB7B7A685B01134403F5B5
:102E30009C7300221A60FB7B7A685B01134403F5E4
:102E40009E7300221A60FB7B7A680A335B0113448D
:102E500000221A60FB7B0133FB73FA7B7B685B68A3
:102E60009A42C8D37B681B683B607E686D4606F15A
:102E700010040FCC0FC523682B60331D0ECB3868B0
:102E800002F0CFFC0346002B05D07B68022283F8BA
:102E9000292201230DE07B68002283F824207B682F
:102EA000012283F829227B681B68184603F021FD64
:102EB000002318461437BD46F0BD80B582B000AF80
:102EC00078607B6893F82832012B01D1022316E049
:102ED0007B68012283F8282201217868FEF741FEF1
:102EE0007B681B68184603F0FAFC7B681B68184671
:102EF00002F058FC7B68002283F828220023184641
:102F00000837BD4680BD80B582B000AF78607B6871
:102F10001B68184603F0F7FC034603F40043B3F5BF
:102F2000004F02D1786800F01FFB7B681B681846D1
:102F300003F0E9FC034603F48063B3F5806F12D11C
:102F40007B681B68B3F844309AB27B681B6822F434
:102F5000806292B2A3F844207868FEF7FEFB00215D
:102F6000786800F0DEF87B681B68184603F0CBFC3D
:102F7000034603F48043B3F5804F0BD17B681B6895
:102F8000B3F844309AB27B681B6822F4804292B254
:102F9000A3F844207B681B68184603F0B4FC034682
:102FA00003F40053B3F5005F0BD17B681B68B3F8E3
:102FB00044309AB27B681B6822F4005292B2A3F8A4
:102FC00044207B681B68184603F09DFC034603F40D
:102FD0008053B3F5805F26D17B681B68B3F840301F
:102FE0009AB27B681B6822F0040292B2A3F84020D8
:102FF0007B681B68B3F840309AB27B681B6822F08C
:10300000080292B2A3F840207868FEF7DDFB7B68E7
:103010001B68B3F844309AB27B681B6822F4805274
:1030200092B2A3F844207B681B68184603F06BFC3F
:10303000034603F40063B3F5006F3DD17B681B6862
:10304000B3F840309AB27B681B6842F0080292B233
:10305000A3F840207B681B68B3F844309AB27B68C1
:103060001B6822F4006292B2A3F844207B681B68BC
:10307000B3F840309AB27B681B6842F0040292B207
:10308000A3F840207B681B68184603F03CFC03460D
:1030900003F48053B3F5805F0BD17B681B68B3F8F2
:1030A00044309AB27B681B6822F4805292B2A3F833
:1030B00044207868FEF76EFB7B681B68184603F0B7
:1030C00022FC034603F40073B3F5007F0ED17B6846
:1030D0001B68B3F844309AB27B681B6822F4007214
:1030E00092B2A3F844207868FEF729FB7B681B683E
:1030F000184603F008FC034603F48073B3F5807FA1
:103100000BD17B681B68B3F844309AB27B681B68AC
:1031100022F4807292B2A3F8442000BF0837BD4663
:1031200080BD80B582B000AF78600B46FB707B68D5
:1031300093F82832012B01D1022313E07B6801228E
:1031400083F828227B68FA7883F824207B681B6840
:10315000FA781146184603F0AFFB7B68002283F82B
:103160002822002318460837BD4680BD80B584B0AC
:1031700000AF7860084611461A460346FB700B46BE
:103180003B801346BB700023FB7297F90330002B82
:103190000BDAFB7803F007035B0128337A681344EA
:1031A000FB60FB6801225A700BE0FB7803F0070319
:1031B0005B0103F594737A681344FB60FB6800229B
:1031C0005A70FB7803F00703DAB2FB681A703A888A
:1031D000FB681A61FB68BA78DA70FB685B78002BD1
:1031E00004D0FB681B789AB2FB68DA81BB78022BAB
:1031F00002D1FB6800221A717B6893F82832012BF8
:1032000001D102230EE07B68012283F828227B682B
:103210001B68F968184602F03DFB7B68002283F8C2
:103220002822FB7A18461037BD4680BD80B584B091
:1032300000AF78600B46FB7097F90330002B0BDA78
:10324000FB7803F007035B0128337A681344FB60C3
:10325000FB6801225A700BE0FB7803F007035B0167
:1032600003F594737A681344FB60FB6800225A707C
:10327000FB7803F00703DAB2FB681A707B6893F8F7
:103280002832012B01D102230EE07B68012283F852
:1032900028227B681B68F968184602F0E9FD7B6804
:1032A000002283F82822002318461037BD4680BD2F
:1032B00080B586B000AFF8607A603B600B46FB7269
:1032C000FB7A03F007035B0103F59473FA68134478
:1032D0007B617B697A685A617B693A689A617B692C
:1032E0000022DA617B6900225A70FB7A03F007033F
:1032F000DAB27B691A70FB7A03F00703002B06D160
:10330000FB681B687969184602F048FF05E0FB6816
:103310001B687969184602F041FF002318461837E8
:10332000BD4680BD80B483B000AF78600B46FB70B3
:10333000FB7803F007037A680A335B011344043314
:103340001B6818460C37BD4680BC704780B586B0F8
:1033500000AFF8607A603B600B46FB72FB7A03F0CB
:1033600007035B012833FA6813447B617B697A6841
:103370005A617B693A689A617B690022DA617B69EC
:1033800001225A70FB7A03F00703DAB27B691A70E4
:10339000FB7A03F00703002B06D1FB681B687969F1
:1033A000184602F0FBFE05E0FB681B6879691846C9
:1033B00002F0F4FE002318461837BD4680BD80B5E4
:1033C00084B000AF78600B46FB70FB7803F0070217
:1033D0007B685B689A4201D9012346E097F9033084
:1033E000002B0BDAFB7803F007035B0128337A68C4
:1033F0001344FB60FB6801225A7009E0FB785B0113
:1034000003F594737A681344FB60FB6800225A70DA
:10341000FB6801229A70FB7803F00703DAB2FB68BD
:103420001A707B6893F82832012B01D102231CE02B
:103430007B68012283F828227B681B68F96818469C
:1034400003F064F9FB7803F00703002B08D17B68D5
:103450001A687B6803F50C731946104603F062FA8C
:103460007B68002283F82822002318461037BD46C7
:1034700080BD80B584B000AF78600B46FB70FB78F0
:1034800003F00F027B685B689A4201D901233AE09E
:1034900097F90330002B0BDAFB7803F007035B018D
:1034A00028337A681344FB60FB6801225A700BE0F2
:1034B000FB7803F007035B0103F594737A68134408
:1034C000FB60FB6800225A70FB6800229A70FB7850
:1034D00003F00703DAB2FB681A707B6893F82832AE
:1034E000012B01D102230EE07B68012283F8282200
:1034F0007B681B68F968184603F04AF97B6800226C
:1035000083F82822002318461037BD4680BD80B5B9
:1035100082B000AF78600B46FB707B6893F828326E
:10352000012B01D102231BE07B68012283F82822B2
:1035300097F90330002B09DA7B681A68FB7803F0EF
:1035400007031946104602F090F904E07B681B68F7
:10355000184602F095F97B68002283F828220023A0
:1035600018460837BD4680BD90B589B000AF786079
:1035700082E27B681B68B3F84430FB82FB8ADBB2D3
:1035800003F00F037B757B7D002B40F04281FB8AAB
:1035900003F01003002B51D17B681B681B889BB282
:1035A00023F4E14323F070039CB27B681A686FEA4E
:1035B00044436FEA53439BB213807B682833FB601C
:1035C0007B681B68B3F850309BB21A46FB681B78C7
:1035D000DB00134402335B007A681268134403F57E
:1035E00080631B88C3F30902FB68DA61FB685A69D0
:1035F000FB68DB691A44FB685A6100217868FEF7B2
:1036000087F87B6893F82430DBB2002B00F034821B
:10361000FB689B69002B40F02F827B6893F8243075
:10362000DBB263F07F03DAB27B681B6892B2A3F867
:103630004C207B68002283F824201DE27B6803F580
:103640009473FB607B681B681B887B827B8A03F416
:103650000063002B33D07B681B68B3F850309BB2FB
:103660001A46FB681B78DB00134406335B007A685C
:103670001268134403F580631B88C3F30902FB68D7
:10368000DA617B6818687B6803F50C71FB68DA887F
:10369000FB68DB699BB203F094F97B681B681B88AD
:1036A0009AB240F68F7313409CB27B681B6844F05B
:1036B000800292B21A807868FEF700F8DCE1B7F970
:1036C0001230002B80F2D8817B681B681B889AB26D
:1036D00040F68F7313409CB27B681B6844F08002F5
:1036E00092B21A807B681B68B3F850309BB21A46BE
:1036F000FB681B78DB00134406335B007A681268B2
:10370000134403F580631B88C3F30902FB68DA6185
:10371000FB68DB69002B19D0FB685B69002B15D0B7
:103720007B681868FB685969FB68DA88FB68DB69A5
:103730009BB203F046F9FB685A69FB68DB691A44DF
:10374000FB685A6100217868FDF7CAFF7B681B6837
:103750001C467B681B68B3F850309BB21C4404F2D3
:103760000C431C46FB681B69002B0ED123889BB2BF
:1037700023F4F8439BB2238023889BB26FEA434330
:103780006FEA53439BB223802DE0FB681B693E2BFD
:1037900012D8FB681B695B08BB61FB681B6903F0FF
:1037A0000103002B02D0BB690133BB61BB699BB233
:1037B0009B029BB2238016E0FB681B695B09BB611F
:1037C000FB681B6903F01F03002B02D1BB69013B9F
:1037D000BB61BB699BB29B029BB26FEA43436FEA3A
:1037E00053439BB223807B681B681B889BB223F4E6
:1037F000804323F070039CB284F480539CB284F421
:1038000000539CB27B681A68A24B23439BB213807F
:1038100032E17B681B681A467B7D9B0013441B8842
:103820007B82B7F91230002B80F2D1807B681B6855
:103830001A467B7D9B0013441B889AB240F68F7317
:1038400013409CB27B681B681A467B7D9B00134427
:1038500044F0800292B21A807B7D5B0103F5947381
:103860007A681344FB60FB681B7B002B21D17B68CB
:103870001B68B3F850309BB21A46FB681B78DB001C
:10388000134406335B007A681268134403F58063BF
:103890001B88C3F30903FB83FB8B002B72D07B686F
:1038A0001868FB685969FB68DA88FB8B03F089F8B4
:1038B00068E07B681B681A46FB681B789B00134412
:1038C0001B889BB203F48043002B21D07B681B68CC
:1038D000B3F850309BB21A46FB681B78DB001344E8
:1038E00002335B007A681268134403F580631B8817
:1038F000C3F30903FB83FB8B002B2AD07B6818687A
:10390000FB685969FB681A89FB8B03F05AF820E0C1
:103910007B681B68B3F850309BB21A46FB681B7873
:10392000DB00134406335B007A681268134403F526
:1039300080631B88C3F30903FB83FB8B002B08D038
:103940007B681868FB685969FB685A89FB8B03F030
:1039500038F87B681B681A46FB681B789B00134489
:103960001B889BB223F4E04323F070039CB27B6876
:103970001B681A46FB681B789B001A44464B23437E
:103980009BB21380FB68DA69FB8B1A44FB68DA612F
:10399000FB685A69FB8B1A44FB685A61FB689B6998
:1039A000002B04D0FA8BFB681B699A4206D2FB6895
:1039B0001B7819467868FDF793FE08E0FB681978D4
:1039C000FB685A69FB689B697868FFF771FC7B8A22
:1039D00003F08003002B4FD07B7D5B0128337A6896
:1039E0001344FB607B681B681A467B7D9B00134475
:1039F0001B889BB223F4E14323F070039CB27B68E5
:103A00001B681A467B7D9B001A446FEA44436FEAA9
:103A100053439BB213807B681B68B3F850309BB252
:103A20001A46FB681B78DB00134402335B007A689C
:103A30001268134403F580631B88C3F30902FB6813
:103A4000DA61FB685A69FB68DB691A44FB685A61F2
:103A5000FB689B69002B06D1FB681B7819467868C8
:103A6000FDF756FE08E0FB681978FB685A69FB68A9
:103A70009B697868FFF76AFC7B681B68B3F8443081
:103A80009BB21BB2002BFFF674AD002318462437FF
:103A9000BD4690BD8080FFFFC080FFFF80B487B02F
:103AA00000AFF8607B600B467B8113463B817B89CE
:103AB00003F080039BB2002B08D07B8903F007033F
:103AC0005B012833FA6813447B6106E07B895B0164
:103AD00003F59473FA6813447B613B89002B07D18B
:103AE0007B6900221A737B689AB27B69DA800BE0EB
:103AF0007B6901221A737B689AB27B691A817B68A1
:103B00001B0C9AB27B695A81002318461C37BD46AC
:103B100080BC704780B586B000AF78607B68002BB2
:103B200001D101236CE27B681B6803F00103002BC9
:103B300000F08780924B5B6803F00C03042B0CD0E1
:103B40008F4B5B6803F00C03082B12D18C4B5B6826
:103B500003F48033B3F5803F0BD1894B1B6803F42A
:103B60000033002B6CD07B685B68002B68D101238D
:103B700046E27B685B68B3F5803F06D1804B1B68EB
:103B80007F4A43F4803313602EE07B685B68002B30
:103B90000CD17B4B1B687A4A23F480331360784B3B
:103BA0001B68774A23F4802313601DE07B685B6801
:103BB000B3F5A02F0CD1724B1B68714A43F48023DC
:103BC00013606F4B1B686E4A43F4803313600BE045
:103BD0006B4B1B686A4A23F480331360684B1B6885
:103BE000674A23F4802313607B685B68002B13D043
:103BF000FEF708FB386108E0FEF704FB02463B696C
:103C0000D31A642B01D90323FAE15D4B1B6803F43B
:103C10000033002BF0D014E0FEF7F4FA386108E02E
:103C2000FEF7F0FA02463B69D31A642B01D903234D
:103C3000E6E1534B1B6803F40033002BF0D100E0A6
:103C400000BF7B681B6803F00203002B63D04C4B62
:103C50005B6803F00C03002B0BD0494B5B6803F04F
:103C60000C03082B1CD1464B5B6803F48033002BFC
:103C700016D1434B1B6803F00203002B05D07B6871
:103C80001B69012B01D00123BAE13D4B1B6823F0D6
:103C9000F8027B685B69DB00394913430B603AE04B
:103CA0007B681B69002B20D0364B01221A60FEF77F
:103CB000A9FA386108E0FEF7A5FA02463B69D31A73
:103CC000022B01D903239BE12D4B1B6803F0020358
:103CD000002BF0D02A4B1B6823F0F8027B685B694D
:103CE000DB00274913430B6015E0264B00221A60C6
:103CF000FEF788FA386108E0FEF784FA02463B696D
:103D0000D31A022B01D903237AE11D4B1B6803F060
:103D10000203002BF0D17B681B6803F00803002B23
:103D20003AD07B689B69002B19D0174B01221A608F
:103D3000FEF768FA386108E0FEF764FA02463B696C
:103D4000D31A022B01D903235AE10D4B5B6A03F00E
:103D50000203002BF0D0012000F0DAFA1CE00A4B3D
:103D600000221A60FEF74EFA38610FE0FEF74AFAB9
:103D700002463B69D31A022B08D9032340E100BF56
:103D80000010024000004242800442429E4B5B6AA7
:103D900003F00203002BE9D17B681B6803F00403E6
:103DA000002B00F0A6800023FB75974BDB6903F026
:103DB0008053002B0DD1944BDB69934A43F0805321
:103DC000D361914BDB6903F08053BB60BB68012377
:103DD000FB758E4B1B6803F48073002B18D18B4B43
:103DE0001B688A4A43F480731360FEF70BFA38614C
:103DF00008E0FEF707FA02463B69D31A642B01D9A3
:103E00000323FDE0814B1B6803F48073002BF0D08B
:103E10007B68DB68012B06D17B4B1B6A7A4A43F037
:103E2000010313622DE07B68DB68002B0CD1764B1D
:103E30001B6A754A23F001031362734B1B6A724AB3
:103E400023F0040313621CE07B68DB68052B0CD1B4
:103E50006D4B1B6A6C4A43F0040313626A4B1B6A86
:103E6000694A43F0010313620BE0674B1B6A664A21
:103E700023F001031362644B1B6A634A23F00403BB
:103E800013627B68DB68002B15D0FEF7BBF9386145
:103E90000AE0FEF7B7F902463B69D31A41F28832CD
:103EA000934201D90323ABE0574B1B6A03F0020393
:103EB000002BEED014E0FEF7A5F938610AE0FEF71A
:103EC000A1F902463B69D31A41F28832934201D9E3
:103ED000032395E04C4B1B6A03F00203002BEED149
:103EE000FB7D012B05D1484BDB69474A23F080530A
:103EF000D3617B68DB69002B00F08180424B5B68FB
:103F000003F00C03082B61D07B68DB69022B46D1E0
:103F10003F4B00221A60FEF775F9386108E0FEF7A2
:103F200071F902463B69D31A022B01D9032367E0DA
:103F3000354B1B6803F00073002BF0D17B681B6AC4
:103F4000B3F5803F08D1304B5B6823F400327B68C7
:103F50009B682D4913434B602B4B5B6823F4741211
:103F60007B68196A7B685B6A0B43274913434B6084
:103F7000274B01221A60FEF745F9386108E0FEF789
:103F800041F902463B69D31A022B01D9032337E0DA
:103F90001D4B1B6803F00073002BF0D02FE01C4B6F
:103FA00000221A60FEF72EF9386108E0FEF72AF9C0
:103FB00002463B69D31A022B01D9032320E0124B9E
:103FC0001B6803F00073002BF0D118E07B68DB69FD
:103FD000012B01D1012313E00B4B5B68FB60FB68F5
:103FE00003F480327B681B6A9A4206D1FB6803F4B3
:103FF00070127B685B6A9A4201D0012300E00023C3
:1040000018461837BD4680BD0010024000700040C1
:104010006000424280B584B000AF786039607B6850
:10402000002B01D10123D0E06A4B1B6803F007038A
:104030003A689A4210D9674B1B6823F0070265491A
:104040003B6813430B60634B1B6803F007033A683C
:104050009A4201D00123B8E07B681B6803F0020399
:10406000002B20D07B681B6803F00403002B05D0D5
:10407000594B5B68584A43F4E06353607B681B68A4
:1040800003F00803002B05D0534B5B68524A43F4FE
:1040900060535360504B5B6823F0F0027B689B6871
:1040A0004D4913434B607B681B6803F00103002BF1
:1040B00040D07B685B68012B07D1474B1B6803F43A
:1040C0000033002B15D101237FE07B685B68022B56
:1040D00007D1414B1B6803F00073002B09D101236A
:1040E00073E03D4B1B6803F00203002B01D1012359
:1040F0006BE0394B5B6823F003027B685B683649F1
:1041000013434B60FEF77EF8F8600AE0FEF77AF89A
:104110000246FB68D31A41F28832934201D9032345
:1041200053E02D4B5B6803F00C027B685B689B00DF
:104130009A42EBD1274B1B6803F007033A689A4277
:1041400010D2244B1B6823F0070222493B6813431B
:104150000B60204B1B6803F007033A689A4201D0BA
:10416000012332E07B681B6803F00403002B08D0B6
:10417000194B5B6823F4E0627B68DB6816491343E4
:104180004B607B681B6803F00803002B09D0124BBF
:104190005B6823F460527B681B69DB000E491343A4
:1041A0004B6000F021F801460B4B5B681B0903F0E4
:1041B0000F030A4AD35C21FA03F3094A1360094B3F
:1041C0001B681846FDF7DCFF002318461037BD4674
:1041D00080BD00BF002002400010024044B900082A
:1041E000880000208C00002090B48AB000AF2A4BD9
:1041F0003C1D0FCB84E80F00284B1B883B8000231D
:10420000FB610023BB6100237B6200237B610023F1
:104210003B62234B5B68FB61FB6903F00C03042BDF
:1042200002D0082B03D02DE01E4B3B622DE0FB6932
:104230009B0C03F00F0307F12802134413F8243CEE
:104240007B61FB6903F48033002B13D0144B5B6854
:104250005B0C03F0010307F12802134413F8283C18
:10426000BB617B690F4A02FB03F2BB69B2FBF3F34C
:104270007B6204E07B690C4A02FB03F37B627B6A8E
:104280003B6202E0074B3B6200BF3B6A184628379F
:10429000BD4690BC704700BF0CB900081CB90008AF
:1042A0000010024000127A0000093D0080B400AF07
:1042B000024B1B681846BD4680BC70478800002032
:1042C00080B500AFFFF7F2FF0146054B5B681B0AA4
:1042D00003F00703034AD35C21FA03F3184680BDB9
:1042E0000010024054B9000880B500AFFFF7DEFFB0
:1042F0000146054B5B68DB0A03F00703034AD35C06
:1043000021FA03F3184680BD0010024054B900089A
:1043100080B485B000AF78600A4B1B680A4AA2FBE4
:1043200003235B0A7A6802FB03F3FB6000BFFB68B0
:104330005A1EFA60002BF9D100BF1437BD4680BC6D
:10434000704700BF88000020D34D621080B586B052
:1043500000AF786000233B610023FB607B681B6833
:1043600003F00103002B7DD00023FB754F4BDB696D
:1043700003F08053002B0DD14C4BDB694B4A43F0CB
:104380008053D361494BDB6903F08053BB60BB684A
:104390000123FB75464B1B6803F48073002B18D177
:1043A000434B1B68424A43F480731360FDF72AFFB6
:1043B000386108E0FDF726FF02463B69D31A642BFB
:1043C00001D903236DE03A4B1B6803F48073002B83
:1043D000F0D0364B1B6A03F44073FB60FB68002B84
:1043E0002ED07B685B6803F44073FA689A4227D04A
:1043F0002E4B1B6A23F44073FB602E4B01221A6084
:104400002C4B00221A60294AFB681362FB6803F0F8
:104410000103002B14D0FDF7F5FE38610AE0FDF72B
:10442000F1FE02463B69D31A41F28832934201D928
:10443000032336E01D4B1B6A03F00203002BEED072
:104440001A4B1B6A23F440727B685B68174913435D
:104450000B62FB7D012B05D1144BDB69134A23F062
:104460008053D3617B681B6803F00203002B08D0E4
:104470000E4B5B6823F440427B689B680B491343F7
:104480004B607B681B6803F01003002B08D0074BC0
:104490005B6823F480027B68DB68044913434B604C
:1044A000002318461837BD4680BD00BF00100240EB
:1044B000007000404004424280B582B000AF786096
:1044C0007B68002B01D1012353E07B6800229A62B4
:1044D0007B6893F85130DBB2002B06D17B68002259
:1044E00083F85020786800F048F87B68022283F84F
:1044F00051207B681B681A687B681B6822F04002A9
:104500001A607B685A687B689B681A437B68DB6823
:104510001A437B681B691A437B685B691A437B6893
:104520009B6903F400731A437B68DB691A437B6859
:104530001B6A42EA03017B689A6A7B681B680A432C
:104540001A607B689B691A0C7B681B6802F0040286
:104550005A607B681B68DA697B681B6822F400621A
:10456000DA617B6800225A657B68012283F851205A
:10457000002318460837BD4680BD80B483B000AF25
:10458000786000BF0C37BD4680BC704780B588B0EE
:1045900000AFF860B9603B601346FB800023FB77F7
:1045A000FB6893F85030012B01D102231EE1FB6818
:1045B000012283F85020FDF725FEB861FB88FB82BD
:1045C000FB6893F85130DBB2012B02D00223FB775A
:1045D00003E1BB68002B02D0FB88002B02D1012332
:1045E000FB77FAE0FB68032283F85120FB68002286
:1045F0005A65FB68BA681A63FB68FA889A86FB6892
:10460000FA88DA86FB6800229A63FB6800229A87A0
:10461000FB680022DA87FB6800225A64FB680022EC
:104620001A64FB689B68B3F5004F07D1FB681B68F1
:104630001A68FB681B6842F480421A60FB681B68BA
:104640001B6803F04003402B07D0FB681B681A6807
:10465000FB681B6842F040021A60FB68DB68B3F538
:10466000006F4BD1FB685B68002B02D0FB8A012BEB
:104670003ED1FB681B6B1A88FB681B68DA60FB681D
:104680001B6B9A1CFB681A63FB68DB8E9BB2013BB9
:104690009AB2FB68DA862BE0FB681B689B6803F024
:1046A0000203022B12D1FB681B6B1A88FB681B6884
:1046B000DA60FB681B6B9A1CFB681A63FB68DB8E75
:1046C0009BB2013B9AB2FB68DA8611E0FDF79AFDD6
:1046D0000246BB69D31A3A689A4203D83B68B3F1E1
:1046E000FF3F02D13B68002B02D10323FB7774E02C
:1046F000FB68DB8E9BB2002BCED14CE0FB685B6885
:10470000002B02D0FB8A012B40D1FB681A6BFB689F
:104710001B680C3312781A70FB681B6B5A1CFB6801
:104720001A63FB68DB8E9BB2013B9AB2FB68DA86A8
:104730002CE0FB681B689B6803F00203022B13D17B
:10474000FB681A6BFB681B680C3312781A70FB68E5
:104750001B6B5A1CFB681A63FB68DB8E9BB2013B28
:104760009AB2FB68DA8611E0FDF74CFD0246BB69A0
:10477000D31A3A689A4203D83B68B3F1FF3F02D19B
:104780003B68002B02D10323FB7726E0FB68DB8E1E
:104790009BB2002BCDD1BA693968F86800F043FAB2
:1047A0000346002B02D0FB6820225A65FB689B68F9
:1047B000002B0AD100233B61FB681B68DB683B616F
:1047C000FB681B689B683B613B69FB685B6D002B6A
:1047D00002D00123FB7700E000BFFB68012283F8D1
:1047E0005120FB68002283F85020FB7F18462037B9
:1047F000BD4680BD80B58CB000AFF860B9607A600E
:104800007B800123FB62002387F82B30FB6893F841
:104810005030012B01D102238AE1FB68012283F889
:104820005020FDF7EFFC7862FB6893F8513087F871
:104830002330FB685B68FB617B887B8397F82330C0
:10484000012B0FD0FB69B3F5827F07D1FB689B6812
:10485000002B03D197F82330042B03D0022387F8D1
:104860002B305BE1BB68002B05D07B68002B02D0AE
:104870007B88002B03D1012387F82B304EE1FB68A6
:1048800093F85130DBB2042B03D0FB68052283F888
:104890005120FB6800225A65FB687A689A63FB68BE
:1048A0007A88DA87FB687A889A87FB68BA681A631D
:1048B000FB687A88DA86FB687A889A86FB68002229
:1048C0001A64FB6800225A64FB681B681B6803F0CB
:1048D0004003402B07D0FB681B681A68FB681B6805
:1048E00042F040021A60FB68DB68B3F5006F78D1D4
:1048F000FB685B68002B02D07B8B012B66D1FB68C9
:104900001B6B1A88FB681B68DA60FB681B6B9A1CC0
:10491000FB681A63FB68DB8E9BB2013B9AB2FB68B3
:10492000DA8653E0FB681B689B6803F00203022BE6
:104930001BD1FB68DB8E9BB2002B16D0FB6A012BD0
:1049400013D1FB681B6B1A88FB681B68DA60FB6875
:104950001B6B9A1CFB681A63FB68DB8E9BB2013BE6
:104960009AB2FB68DA860023FB62FB681B689B68CF
:1049700003F00103012B19D1FB68DB8F9BB2002BE5
:1049800014D0FB681B68DA68FB689B6B92B21A80D4
:10499000FB689B6B9A1CFB689A63FB68DB8F9BB27E
:1049A000013B9AB2FB68DA870123FB62FDF72AFC20
:1049B00002467B6AD31ABA6B9A4207D8BB6BB3F133
:1049C000FF3F03D0032387F82B30A7E0FB68DB8E83
:1049D0009BB2002BA6D1FB68DB8F9BB2002BA1D131
:1049E0007CE0FB685B68002B02D07B8B012B6BD1DA
:1049F000FB681A6BFB681B680C3312781A70FB6833
:104A00001B6B5A1CFB681A63FB68DB8E9BB2013B75
:104A10009AB2FB68DA8657E0FB681B689B6803F074
:104A20000203022B1CD1FB68DB8E9BB2002B17D03C
:104A3000FB6A012B14D1FB681A6BFB681B680C33F3
:104A400012781A70FB681B6B5A1CFB681A63FB68B0
:104A5000DB8E9BB2013B9AB2FB68DA860023FB62D5
:104A6000FB681B689B6803F00103012B19D1FB68ED
:104A7000DB8F9BB2002B14D0FB681B68DA68FB68E5
:104A80009B6BD2B21A70FB689B6B5A1CFB689A63D3
:104A9000FB68DB8F9BB2013B9AB2FB68DA8701238C
:104AA000FB62FDF7AFFB02467B6AD31ABA6B9A42F0
:104AB00003D8BB6BB3F1FF3F02D1BB6B002B03D11B
:104AC000032387F82B3029E0FB68DB8E9BB2002B99
:104AD000A2D1FB68DB8F9BB2002B9DD17A6AB96BA8
:104AE000F86800F0A0F80346002B06D0012387F8F1
:104AF0002B30FB6820225A6510E0FB689B68002B76
:104B00000BD100237B61FB681B68DB687B61FB6862
:104B10001B689B687B617B6900E000BFFB6801222A
:104B200083F85120FB68002283F8502097F82B303F
:104B300018463037BD4680BD80B483B000AF786082
:104B40007B6893F85130DBB218460C37BD4680BC09
:104B5000704780B584B000AFF860B9603B60134621
:104B6000FB714CE03B68B3F1FF3F48D0FDF74AFBD7
:104B70000246BB69D31A3A689A4202D93B68002BB5
:104B80003DD1FB681B685A68FB681B6822F0E00295
:104B90005A60FB685B68B3F5827F11D1FB689B6844
:104BA000B3F5004F04D0FB689B68B3F5806F07D165
:104BB000FB681B681A68FB681B6822F040021A60D9
:104BC000FB689B6AB3F5005F0FD1FB681B681A682E
:104BD000FB681B6822F400521A60FB681B681A68A5
:104BE000FB681B6842F400521A60FB68012283F8DC
:104BF0005120FB68002283F8502003230FE0FB685C
:104C00001B689A68BB681340BA689A420CBF0123BC
:104C10000023DBB21A46FB799A42A3D1002318463F
:104C20001037BD4680BD80B586B002AFF860B96070
:104C30007A607B680093BB6800228021F868FFF7E8
:104C400088FF0346002B07D0FB685B6D43F0200212
:104C5000FB685A65032300E0002318461037BD4661
:104C600080BD80B582B000AF78607B681B681B692F
:104C700003F00203022B22D17B681B68DB6803F080
:104C80000203022B1BD17B681B686FF002021A61C2
:104C90007B6801221A777B681B689B6903F003031A
:104CA000002B03D0786800F0F6F805E0786800F093
:104CB000E9F8786800F0F8F87B6800221A777B68DA
:104CC0001B681B6903F00403042B22D17B681B685B
:104CD000DB6803F00403042B1BD17B681B686FF0B7
:104CE00004021A617B6802221A777B681B689B6941
:104CF00003F44073002B03D0786800F0CCF805E093
:104D0000786800F0BFF8786800F0CEF87B68002281
:104D10001A777B681B681B6903F00803082B22D1F4
:104D20007B681B68DB6803F00803082B1BD17B68DA
:104D30001B686FF008021A617B6804221A777B688F
:104D40001B68DB6903F00303002B03D0786800F0D5
:104D5000A2F805E0786800F095F8786800F0A4F80B
:104D60007B6800221A777B681B681B6903F01003BD
:104D7000102B22D17B681B68DB6803F01003102B1B
:104D80001BD17B681B686FF010021A617B680822D8
:104D90001A777B681B68DB6903F44073002B03D030
:104DA000786800F078F805E0786800F06BF87868CB
:104DB00000F07AF87B6800221A777B681B681B6911
:104DC00003F00103012B0ED17B681B68DB6803F045
:104DD0000103012B07D17B681B686FF001021A6188
:104DE000786800F046F87B681B681B6903F0800355
:104DF000802B0ED17B681B68DB6803F08003802B5F
:104E000007D17B681B686FF080021A61786800F038
:104E100066F87B681B681B6903F04003402B0ED1CA
:104E20007B681B68DB6803F04003402B07D17B687D
:104E30001B686FF040021A61786800F03EF87B68EA
:104E40001B681B6903F02003202B0ED17B681B68B5
:104E5000DB6803F02003202B07D17B681B686FF011
:104E600020021A61786800F031F800BF0837BD46AB
:104E700080BD80B483B000AF786000BF0C37BD4602
:104E800080BC704780B483B000AF786000BF0C373F
:104E9000BD4680BC704780B483B000AF786000BF6F
:104EA0000C37BD4680BC704780B483B000AF7860DB
:104EB00000BF0C37BD4680BC704780B483B000AFE4
:104EC000786000BF0C37BD4680BC704780B483B0AB
:104ED00000AF786000BF0C37BD4680BC704780B41F
:104EE00083B000AF786000BF0C37BD4680BC704710
:104EF00080B582B000AF78607B68002B01D10123C0
:104F00003FE07B6893F83930DBB2002B06D17B6839
:104F1000002283F83820786800F037F87B68242274
:104F200083F839207B681B68DA687B681B6822F489
:104F30000052DA60786800F04BFB7B681B681A69E6
:104F40007B681B6822F490421A617B681B685A696F
:104F50007B681B6822F02A025A617B681B68DA684A
:104F60007B681B6842F40052DA607B680022DA63D7
:104F70007B68202283F839207B68202283F83A203E
:104F8000002318460837BD4680BD80B483B000AF0B
:104F9000786000BF0C37BD4680BC704780B588B0D4
:104FA00002AFF860B9603B601346FB8000237B6171
:104FB000FB6893F83930DBB2202B40F08380BB686C
:104FC000002B02D0FB88002B01D101237BE0FB6882
:104FD00093F83830012B01D1022374E0FB680122E1
:104FE00083F83820FB680022DA63FB68212283F80B
:104FF0003920FDF707F97861FB68FA889A84FB6825
:10500000FA88DA8442E0FB68DB8C9BB2013B9AB2FF
:10501000FB68DA84FB689B68B3F5805F22D13B684C
:1050200000937B6900228021F86800F068F903464C
:10503000002B01D0032346E0BB683B613B691B8822
:105040001A46FB681B68C2F308025A60FB681B69BA
:10505000002B03D1BB680233BB6017E0BB68013390
:10506000BB6013E03B6800937B6900228021F868F5
:1050700000F045F90346002B01D0032323E0BB6871
:105080005A1CBA601A78FB681B685A60FB68DB8C94
:105090009BB2002BB7D13B6800937B690022402173
:1050A000F86800F02CF90346002B01D003230AE036
:1050B000FB68202283F83920FB68002283F838201F
:1050C000002300E0022318461837BD4680BD0000CB
:1050D00080B588B000AF78607B681B681B68FB6197
:1050E0007B681B68DB68BB617B681B685B697B61F5
:1050F00000233B610023FB60FB6903F00F033B616E
:105100003B69002B0DD1FB6903F02003002B08D075
:10511000BB6903F02003002B03D0786800F0D7F9B7
:10512000CCE03B69002B00F0AB807B6903F001030E
:10513000002B05D1BB6903F49073002B00F0A08015
:10514000FB6903F00103002B0AD0BB6903F48073F1
:10515000002B05D07B68DB6B43F001027B68DA63D0
:10516000FB6903F00403002B0AD07B6903F0010301
:10517000002B05D07B68DB6B43F002027B68DA63AF
:10518000FB6903F00203002B0AD07B6903F00103E3
:10519000002B05D07B68DB6B43F004027B68DA638D
:1051A000FB6903F00803002B0AD07B6903F00103BD
:1051B000002B05D07B68DB6B43F008027B68DA6369
:1051C0007B68DB6B002B78D0FB6903F02003002B9E
:1051D00007D0BB6903F02003002B02D0786800F0F1
:1051E00076F97B681B685B6903F04003002B14BFF2
:1051F00001230023DBB2FB607B68DB6B03F0080359
:10520000002B02D1FB68002B31D0786800F0C1F888
:105210007B681B685B6903F04003002B23D07B682D
:105220001B685A697B681B6822F040025A617B68E0
:105230005B6B002B13D07B685B6B224A5A637B68E5
:105240005B6B1846FDF748FA0346002B16D07B68C7
:105250005B6B5B6B7A68526B104698470EE0786820
:1052600000F044F80AE0786800F040F806E078685A
:1052700000F03CF87B680022DA631EE000BF1CE00F
:10528000FB6903F08003002B08D0BB6903F08003A7
:10529000002B03D0786800F0ADF80FE0FB6903F055
:1052A0004003002B0AD0BB6903F04003002B05D05C
:1052B000786800F0F4F800BF00E000BF2037BD467A
:1052C00080BD00BFCD53000880B483B000AF7860CC
:1052D00000BF0C37BD4680BC704780B483B000AFC0
:1052E000786000BF0C37BD4680BC704780B483B087
:1052F00000AF786000BF0C37BD4680BC704780B5FA
:1053000084B000AFF860B9603B601346FB712CE0DD
:10531000BB69B3F1FF3F28D0BB69002B07D0FCF776
:1053200071FF02463B68D31ABA699A421DD2FB68E4
:105330001B68DA68FB681B6822F4D072DA60FB68CD
:105340001B685A69FB681B6822F001025A61FB68FE
:10535000202283F83920FB68202283F83A20FB685A
:10536000002283F8382003230FE0FB681B681A68CB
:10537000BB681340BA689A420CBF01230023DBB21A
:105380001A46FB799A42C3D0002318461037BD460F
:1053900080BD80B483B000AF78607B681B68DA683A
:1053A0007B681B6822F49072DA607B681B685A691C
:1053B0007B681B6822F001025A617B68202283F817
:1053C0003A2000BF0C37BD4680BC704780B584B022
:1053D00000AF78607B685B6AFB60FB680022DA855F
:1053E000FB680022DA84F868FFF780FF00BF1037FF
:1053F000BD4680BD80B485B000AF78607B6893F80F
:105400003930DBB2212B44D17B689B68B3F5805FD8
:105410001AD17B681B6AFB60FB681B881A467B6895
:105420001B68C2F308025A607B681B69002B05D118
:105430007B681B6A9A1C7B681A620EE07B681B6A99
:105440005A1C7B681A6208E07B681B6A591C7A68E0
:1054500011621A787B681B685A607B68DB8C9BB290
:10546000013B9BB27A681946D184002B0FD17B682F
:105470001B68DA687B681B6822F08002DA607B6850
:105480001B68DA687B681B6842F04002DA60002320
:1054900000E0022318461437BD4680BC704780B533
:1054A00082B000AF78607B681B68DA687B681B6835
:1054B00022F04002DA607B68202283F83920786885
:1054C000FFF702FF002318460837BD4680BD80B5B0
:1054D00084B000AF78607B6893F83A30DBB2222B5F
:1054E00071D17B689B68B3F5805F23D17B689B6A31
:1054F000FB607B681B69002B0ED17B681B685B68B7
:105500009BB2C3F308039AB2FB681A807B689B6A5C
:105510009A1C7B689A6229E07B681B685B689BB277
:10552000DBB29AB2FB681A807B689B6A5A1C7B6864
:105530009A621BE07B681B69002B0AD17B681B68A1
:1055400058687B689B6A591C7A689162C2B21A706B
:105550000CE07B681B685B68DAB27B689B6A581C4E
:105560007968886202F07F02D2B21A707B68DB8DA4
:105570009BB2013B9BB27A681946D185002B20D1A2
:105580007B681B68DA687B681B6822F02002DA609F
:105590007B681B68DA687B681B6822F48072DA60BB
:1055A0007B681B685A697B681B6822F001025A619C
:1055B0007B68202283F83A207868FFF78EFE00236C
:1055C00002E0002300E0022318461037BD4680BDEC
:1055D00080B584B000AF78607B681B681B6923F4DA
:1055E00040517B68DA687B681B680A431A617B68F4
:1055F0009A687B681B691A437B685B691343FB608D
:105600007B681B68DB6823F4B05323F00C037A68D3
:105610001268F9680B43D3607B681B685B6923F4ED
:1056200040717B689A697B681B680A435A617B6892
:105630001B68524A93424ED1FEF756FEB860BA68D4
:1056400013469B0013449A001A447B685B689B00D6
:10565000B2FBF3F34A4AA2FB03235B091901BA68C0
:1056600013469B0013449A001A447B685B689B00B6
:10567000B2FBF3F2424BA3FB02035B09642000FB85
:1056800003F3D31A1B0132333D4AA2FB03235B0908
:1056900003F0F0031944BA6813469B0013449A00C0
:1056A0001A447B685B689B00B2FBF3F2344BA3FBAC
:1056B00002035B09642000FB03F3D31A1B0132339E
:1056C0002F4AA2FB03235B0903F00F027B681B68D0
:1056D0000A449A604DE0FEF7F3FDB860BA681346DD
:1056E0009B0013449A001A447B685B689B00B2FBE2
:1056F000F3F3234AA2FB03235B091901BA6813469B
:105700009B0013449A001A447B685B689B00B2FBC1
:10571000F3F21B4BA3FB02035B09642000FB03F3C2
:10572000D31A1B013233164AA2FB03235B0903F091
:10573000F0031944BA6813469B0013449A001A44B4
:105740007B685B689B00B2FBF3F20D4BA3FB02038B
:105750005B09642000FB03F3D31A1B013233084AB0
:10576000A2FB03235B0903F00F027B681B680A445A
:105770009A6000BF1037BD4680BD00BF00380140B1
:105780001F85EB5184B080B483B000AF786007F11F
:10579000140080E80E00002318460C37BD4680BC7C
:1057A00004B0704780B485B000AF78604FF43F43D9
:1057B000FB817B68B3F840309AB2FB8913439AB2FD
:1057C0007B68A3F84020002318461437BD4680BCF0
:1057D000704780B485B000AF78604FF43F43FB81E1
:1057E0007B68B3F840309BB21AB2B7F90E30DB4396
:1057F0001BB213401BB29AB27B68A3F8402000236F
:1058000018461437BD4680BC704780B483B000AFE3
:1058100078600B46FB70002318460C37BD4680BCF1
:10582000704784B080B582B000AF786007F1140093
:1058300080E80E007B680122A3F840207B680022EC
:10584000A3F840207B680022A3F844207B68002254
:10585000A3F850207868FFF7A5FF00231846083703
:10586000BD46BDE8804004B0704780B483B000AF4F
:1058700078603960002318460C37BD4680BC7047FD
:1058800080B483B000AF7860002318460C37BD4663
:1058900080BC704790B484B000AF7860396000235A
:1058A000FB737A683B681B789B0013441B889BB290
:1058B00023F4EC4323F07003BB813B68DB78032BBC
:1058C00019D801A252F823F0D9580008ED58000861
:1058D000FD580008E3580008BB8943F40073BB81FE
:1058E0000DE0BB8943F4C063BB8108E0BB8943F48E
:1058F0008063BB8103E00123FB7300E000BF7A6893
:105900003B681B789B001A44BB8943F07F4343F4F8
:105910007F0343F4004343F080039BB213807A6813
:105920003B681B789B0013441B889BB223F4E04325
:1059300023F070039AB23B681B789BB213439CB26E
:105940007A683B681B789B001A448A4B23439BB2BE
:1059500013803B681B7B002B40F012813B685B7817
:10596000002B67D07C687B68B3F850309BB21C4436
:105970003B681B781B01234403F580631C463B688E
:10598000DB885B089BB25B009BB223807A683B6834
:105990001B789B0013441B889CB2234603F04003F2
:1059A000002B14D07A683B681B789B0013441B883B
:1059B0009BB223F4E04323F070039CB27A683B6807
:1059C0001B789B001A446C4B23439BB213803B68AB
:1059D000DB78012B18D07A683B681B789B00134456
:1059E0001B889BB223F4E04323F040039CB284F075
:1059F00020039CB27A683B681B789B001A445D4B7D
:105A000023439BB213802BE27A683B681B789B0090
:105A100013441B889BB223F4E04323F040039CB261
:105A20007A683B681B789B001A44524B23439BB215
:105A3000138015E27C687B68B3F850309BB21C443D
:105A40003B681B781B01234403F581631C463B68BC
:105A5000DB885B089BB25B009BB223807C687B6821
:105A6000B3F850309BB21C443B681B781B012344A5
:105A700003F20C431C463B681B69002B0ED12388A4
:105A80009BB223F4F8439BB2238023889BB26FEA36
:105A900043436FEA53439BB223802DE03B681B696D
:105AA0003E2B12D83B681B695B08BB603B681B69D7
:105AB00003F00103002B02D0BB680133BB60BB685D
:105AC0009BB29B029BB2238016E03B681B695B097B
:105AD000BB603B681B6903F01F03002B02D1BB684E
